:100000000C9479010C9496010C94B1010C94960116
:100010000C9496010C9496010C9496010C94960104
:100020000C9496010C9496010C94C2160C949601B3
:100030000C9496010C9496010C9496010C949601E4
:100040000C9496010C9496010C9496010C949601D4
:100050000C9496010102E201013D0103E2006100FE
:1000600053000000470046004500430042004000A6
:100070003F003E003D003C003B003A002900540098
:100080006700600048004B002A0044002700410040
:1000900024002300210020001F001E00350255000F
:1000A00000005F0000004E0031002E00120026000C
:1000B000250017002200000000000000000056008C
:1000C00000005E0000004D004A002F002D000000DF
:1000D00000001C000A0000000000000000005B009F
:1000E0004F005D0000004C004900300013000E007E
:1000F0000C000000150008001A0014002B00580026
:1001000000005C00000052002800340033000F00A3
:1001100000001800000007000000000000000000C0
:1001200000005700500000003700380036000D0076
:100130000B0005000900000000001600040000008C
:100140006300000051005A005900620010001100C5
:1001500000002C00190006001B001D00000000001C
:100160000000000000002A2B280000000000000012
:1001700000000000000000000029000000002C1E0C
:100180003420212224342627252E362D3738271EC9
:100190001F202122232425263333362E37381F04EF
:1001A00005060708090A0B0C0D0E0F101112131487
:1001B00015161718191A1B1C1D2F3130232D350445
:1001C00005060708090A0B0C0D0E0F101112131467
:1001D00015161718191A1B1C1D2F3130354C00002D
:1001E000000000000000000000000000000000000F
:1001F00000000000000000000000000000000000FF
:1002000000007E0F00D4FFFFFFC700000078090246
:100210003B00020100A0FA090400000103010100F3
:1002200009210101000122440007058103080001A2
:10023000090401000103000000092101010001225D
:1002400032000705830308000112011001000000BD
:1002500008494921000100010200010C0341004549
:10026000004B004900490000000C03410070007081
:10027000006C00650000000403090405010980A169
:1002800001850319012AB700150126B700950175EC
:10029000108100C0050C0901A101850419012AA0E3
:1002A00002150126A002950175108100C005010903
:1002B00006A101050719E029E71500250195087534
:1002C0000181029501750881030507190029FF15B1
:1002D0000026FF009506750881000508190129050B
:1002E000150025019505750191029501750391038E
:1002F000C00011241FBECFE5D8E0DEBFCDBF10E0A7
:10030000A0E6B0E0E8EDF5E302C005900D92AC3D4B
:10031000B107D9F722E0ACEDB0E001C01D92A732E1
:10032000B207E1F70E94F8110C949B1A0C9400009C
:10033000A82FB92F80E090E041E050EA609530E0CE
:1003400009C02D9182279795879510F084279527CE
:10035000305EC8F36F5FA8F30895EADF8D939D9335
:100360000895CF93CFB7CF93DF93C395839BE9F7DE
:10037000839B10C0839B0EC0839B0CC0839B0AC0D1
:10038000839B08C0839B06C0C091FE01C395C093A8
:10039000FE018EC06F93C091FD01DD27CB5FDD4F65
:1003A0002F9365E5839B03C02F916F91E1CF0F934E
:1003B0001F934F9320E040E15F9300B30C7003FB69
:1003C00027F93F9350E03BE039C01C7040642F7721
:1003D000012F5F5F1EC0406810B31C702F77525012
:1003E0001FC0406400B32F770C70D1F15F5F00C075
:1003F00023C0406210B32F771C7091F15F5F00C083
:1004000025C00C701027515012F45D5F0000115090
:1004100027952C3F10B3C8F61C7001270150279573
:100420002C3FC8F64227499300B30C7010274F7336
:10043000115027952C3FA8F64695469510B31C7091
:1004400079F00127015027952C3F98F66B5A60F3FD
:10045000315000B3B0F600C010E81ABF00271CC02E
:100460003B503195C31BD04010E81ABF0881033CB4
:1004700021F10B3411F12091FA011981110F12139E
:10048000EDCF4A81441F093679F10D3211F0013E5A
:1004900029F74F7009F0042F009303023F915F91F9
:1004A0004F911F910F912F916F91CAB7C7FD5DCFEB
:1004B000DF91CF91CFBFCF911895209103022223D6
:1004C00069F310910102112309F049C034300AF494
:1004D00048C0309301022093FC011091FD013BE0E4
:1004E000311B3093FD013DC0009101020130BCF58C
:1004F0000AE54F7049F430916E0034FD33C000932B
:100500006E00C7EDD1E032C0433059F0443091F075
:100510003091E20134FD26C00093E201C3EED1E048
:1005200025C030911B0234FD1DC000931B02CCE19D
:10053000D2E01CC03091EE0134FD14C00093EE01F6
:10054000CFEED1E013C0052710E000C0000002BBD1
:100550001AC0052710E0221F1DC010E021C04AE587
:1005600002C032ED432FC4E1D0E032E011B31C6091
:10057000939A02B311BB5CE020E865E320FF0527F6
:1005800002BB279517951C3FF0F66695B8F7B1F7B3
:1005900020FF052702BB279517951C3FD0F627950E
:1005A000179517FF052700001C3F02BBB0F62991E5
:1005B0003A9519F7037F10910202110FC651D040EE
:1005C00002BB11F01093FA0110E81ABF086011B3D2
:1005D000137F402F437F54E05A95F1F702BB11BBC4
:1005E00042BB5CCF8F98979A8C9A8D9A8B9A0E9477
:1005F000810E0895CF93C82F0E944F04882349F09D
:10060000C1FF09C0949AC0FF08C0959AC2FF07C0F5
:10061000939ACF9108959498F6CF9598F7CF9398A1
:10062000F8CFCF9380B3C82FC095CC1FCC27CC1F59
:100630009091DE009C1739F087FD03C082E80E948C
:10064000A805C093DE0080B38074C1E08111C0E0D2
:100650009091DF009C1749F0811105C060E084E5AE
:1006600090E00E946914C093DF000E947F11CF9137
:1006700008950E948C1581FF0AC0949A80FF09C0DA
:10068000959A82FF08C0939A0E94830E08959498C9
:10069000F5CF9598F6CF9398F7CF811111C06830B8
:1006A00078F4403168F480E1689FF0011124E40F90
:1006B000F11DEE0FFF1FE25AFF4F859194910895AF
:1006C00081E090E008950E944D03089581E008952F
:1006D0000E946603089581E008950E9466030895CC
:1006E0000E946D03089508950E9473030895A6E083
:1006F000B0E0EDE7F3E00C94FF1949835A839E8341
:100700003091E50089819A8131111AC03E813323ED
:1007100099F0222389F00E946809182F682F898197
:100720009A810E94450969817A81812F0E94751002
:100730002696E3E00C941B1A0E945609182FF3CF5B
:100740000E94680969817A81F1CFFC01262F4081DE
:10075000518162817381848195810E94770308951C
:10076000CF93DF93D82FC92F61E00E94A5036D2F8F
:100770007C2F0E946803DF91CF910895CF93DF9380
:10078000D82FC92F60E00E94A5036D2F7C2F0E94F7
:100790007403DF91CF91089581E008950E94CC0306
:1007A0000895CF93C82F0E9417088C2F0E94CE0364
:1007B0002FEF84E39CE0215080409040E1F700C09F
:1007C0000000CF91089581E00E94D1030E94E616B7
:1007D000089580E00E94D1030E94F41608950F93BB
:1007E0001F93CF93DF938C0161E00E94A503EC017E
:1007F000B8010E9470038823B1F1B801CE010E94B4
:100800003915882381F1B801CE010E94E9128823AD
:1008100051F1B801CE010E94BE12882321F1F801E6
:100820008581882381F0CA35FCE7DF0739F178F448
:10083000C130ECE7DE07F9F0C330FCE7DF07C9F0B1
:10084000C115DC4771F0C8010E946B030DC0CB35A8
:10085000ECE7DE07B1F0CC35DC47A9F70E94580D74
:10086000F2CF0E94E30380E0DF91CF911F910F91BF
:1008700008950E946A0D0E94E903F5CF0E94620D5F
:10088000E2CF0E94660DDFCF0E9454160E945B04E7
:1008900008950E945F040E9459160895089581E00A
:1008A00008950895CF93C82F0E944E048C2F0E9464
:1008B000FA02CF91089580E00E94520408950E94A8
:1008C0007F150E9452040895CF930E947F15C82F70
:1008D0008091E0008C1779F0C093E0000E9496169A
:1008E0006093E1007093E2008093E3009093E40052
:1008F0008C2F0E945204CF910895ADE0B0E0E3E860
:10090000F4E00C94001A488759876A877B878C87A4
:100910009D8791110E94A70C1F8286E0FE013896E8
:10092000DE01119601900D928A95E1F78D8181117A
:100930000DC029813A814B815C816D817E818F81DF
:100940000E94ED0B2D96E2E00C941C1ACE0101964C
:100950000E94B0038111EDCFF5CFFC01848181307D
:1009600021F4808191810E949A090895CF93C82F24
:100970008823C9F08238C9F40E948C1581FD13C008
:1009800089E30E9437160E94060D2FEF37EE83E0B1
:10099000215030408040E1F700C0000089E30E9410
:1009A0003F160E94060DCF9108958338A1F40E944E
:1009B0008C1580FDF8CF83E50E9437160E94060D46
:1009C0009FEF21EE34E0915020403040E1F700C02D
:1009D000000083E5E4CF8438A1F40E948C1582FDE9
:1009E000E2CF87E40E9437160E94060D8FEF91EE4A
:1009F00024E0815090402040E1F700C0000087E4EF
:100A0000CECF8CEF8C0F813A98F48C2F0E948712F6
:100A10008111C9CF8C2F0E94FA15882329F08C2FC1
:100A20000E943F160E94060D8C2F0E943716B9CFE8
:100A300080E28C0F883048F4C77081E001C0880FD5
:100A4000CA95EAF70E94880CACCF8BE58C0F8330F7
:100A500038F42C2F2452330BC9010E949A15A3CFCE
:100A6000C85ACB3108F09FCFEC2FF0E0EE0FFF1FFC
:100A7000E159FF4F808191810E94C01594CF882356
:100A800009F44DC0823879F40E948C1581FF47C06B
:100A900089E30E9437160E94060D89E30E943F16E3
:100AA0000E94060D0895833859F40E948C1580FF2A
:100AB00036C083E50E9437160E94060D83E5EECF0F
:100AC000843859F40E948C1582FF29C087E40E9463
:100AD00037160E94060D87E4E1CF9CEF980F913AFC
:100AE000E8F290E2980F983050F4877091E001C0DE
:100AF000990F8A95EAF7892F0E948E0CD1CF9BE53A
:100B0000980F933028F480E090E00E949A150895A1
:100B1000885A8B3120F480E090E00E94C01508953F
:100B20001F93CF93DF93182FEB010E94B6042097F9
:100B300039F4812F0E943F05DF91CF911F910895D5
:100B40008FE99FE00197F1F700C000002197EFCFF8
:100B500060E070E0893311F460E570E00E94900578
:100B60000895882321F00E94880C0E94060D0895A4
:100B7000882321F00E948E0C0E94060D0895A0E0AB
:100B8000B0E0E5ECF5E00C94FA196C01D62FC72F14
:100B9000FC010581F680F2948FE0F8220E947D0C22
:100BA000E82E8823F9F0E02E0023E1F08C2F807FDF
:100BB000803461F080E28D0F8830A0F18C2F807E30
:100BC000803221F4D23070F1FF2061F18091B201C6
:100BD00082FF28C082E00E942B0D0E947D0C91E0D4
:100BE000E82EE9268C2F82958F70883009F4E7C0B3
:100BF000B0F58430C8F41C2F1F70823008F440C058
:100C0000C07FC03211F01295107FDD2309F467C058
:100C1000D13009F497C0002309F4A3C0FF2009F4E0
:100C20007AC041C0E12CDECF843009F4ABC0EE20A5
:100C300089F00E94790C80FD0DC0F60115820E949A
:100C4000730C0E94A208C6010E94E2070E94730C66
:100C50000E94B208CDB7DEB7E8E00C94161A8930CE
:100C600009F424C18A5F8F70823008F7D23F09F0FF
:100C70002EC18C2F8F71011127C10E94A208CEC0F6
:100C8000C03110F01295107F002399F0112359F014
:100C900080E28D0F883010F0D11107C0812F0E94A3
:100CA000880C0E94060D8D2F28C0812F0E94990C60
:100CB000F8CF8D2F0E943F05112309F4B8CF80E2B1
:100CC0008D0F883010F0D11104C0812F0E948E0C3E
:100CD00003C0812F0E949F0C0E94060DA8CF809117
:100CE000B20182FD14C0002359F0112329F0812F95
:100CF0000E94880C0E94060D80E00E94B60497CFE7
:100D000080E00E943F05112309F491CFDECF00233C
:100D100069F0F11004C0812F0E94B10588CFF1E085
:100D2000FF1285CF812F0E94BF0C81CFF1107FCFA2
:100D3000812F0E94B805812F0E94CB0C812F0E9429
:100D4000AE0C75CF002329F025E02F1508F46FCFE6
:100D5000E2CF84E08F1508F46ACF812F0E94B80596
:100D600066CFFF20D1F3D93349F49FEFE7EEF3E0EC
:100D70009150E040F040E1F700C000008D2F0E944C
:100D80003F0555CF8C2F869586958370882369F013
:100D9000813009F04CCF8D2F9C2F9370011102C030
:100DA00080E090E00E94C01542CF8D2F9C2F937061
:100DB000011102C080E090E00E949A1538CF8C2F7C
:100DC0008370811139C0011129C04D2F429546957C
:100DD0004770440F440F2D2F2F7030E0042E02C0B7
:100DE000220F331F0A94E2F780E090E0D4FF09C09D
:100DF0008FE090E002C0880F991F4A95E2F7809536
:100E00009095C695C695C370822B932BC23071F016
:100E1000C33079F0C13039F00E9472080E947F150A
:100E20000E94520404CF0E946908F8CF0E947B08F8
:100E3000F5CF0E946608F2CF002361F1C0FFEECF2C
:100E40004D2F429546954770440F440F2D2F2F701C
:100E500030E0042E02C0220F331F0A94E2F780E034
:100E600090E0D4FF09C08FE090E002C0880F991F86
:100E70004A95E2F780959095C695C695C370822BEA
:100E8000932BC23069F0C33071F0C13031F00E9451
:100E9000DD08C4CF823010F2D3CF0E94D408BECF79
:100EA0000E94E608BBCF0E948A08B8CFCF7000230B
:100EB00039F08C2F0E94A2088D2F0E94B105AECF71
:100EC0008D2F0E94B8058C2F0E94B208A7CFD33F68
:100ED00070F4D03FB9F0D13F89F1002309F449C043
:100EE000FF2009F443C08D2F0E94B60497CFD33F53
:100EF000B9F0D43FF9F00111F3CFF11047C08C2FB6
:100F00008F71E2CF002349F024E02F1508F486CF3B
:100F10008C2F8F710E94C40881CF85E0F816F6CF20
:100F2000002329F08C2F8F710E94960877CF0E94A2
:100F3000910874CF8091B20182FD05C08C2F8F7112
:100F4000002311F29ACE002331F063E08C2F8F71D1
:100F50000E940D0D63CF81E00E942B0D91E09F1543
:100F600008F05CCF82E00E942B0D58CF8C2F8F7140
:100F700084CEFF2021F2D93349F4EFEFF7EE23E0DE
:100F8000E150F0402040E1F700C000008D2F0E94AA
:100F90003F0544CF0F931F93CF93DF93EC016881FC
:100FA00079818D810E94A7098C010E94EF080E941F
:100FB0006508B801CE010E94BF05DF91CF911F9156
:100FC0000F910895CF93DF93EC018C81882399F0E2
:100FD000CE010E94EF03811111C00E947D0C882375
:100FE00051F08D81882339F08091B20182FF03C0D6
:100FF00082E00E942B0DDF91CF910895CE010E94D7
:10100000CA07CE010E94BE03F6CF80E090E00E94A6
:101010009A1580E090E00E94C0150E94A70C0E94E3
:10102000060D08950E9447160E94050808950E9423
:10103000960C0E9412080895282F92959F70963062
:1010400091F060F4925F9F70923030F481E0203F25
:1010500079F030F4283E30F080E008959A5FF3CFC5
:10106000243FD1F7089581E0283EE0F3213FF9CFF6
:101070000895FC018481882339F0808191810E9448
:101080009A090E941C08089580E00895A6E0B0E047
:10109000ECE4F8E00C94001A2696E2E00C941C1A9A
:1010A000A7E0B0E0E6E5F8E00C94001A2796E2E04D
:1010B0000C941C1A08950E945A0808950E945B0817
:1010C0009093290180932801089508950E945E0855
:1010D00008952091280130912901822B932B0E94A1
:1010E0005E080895209128013091290182239323DD
:1010F0000E945E08089520912801309129018227DD
:1011000093270E945E0808950E945A0808950E943D
:10111000840808950E9487089093270180932601F0
:10112000089580E090E00E948A08089521E030E070
:10113000A90102C0440F551F8A95E2F7CA010E9417
:101140008A08089521E030E002C0220F331F8A95FB
:10115000E2F78091260190912701822B932B0E9428
:101160008A08089521E030E002C0220F331F8A95DB
:10117000E2F72095309580912601909127018223F6
:1011800093230E948A08089521E030E002C0220FD4
:10119000331F8A95E2F780912601909127018227DB
:1011A00093270E948A0808952091260130912701F3
:1011B000822B932B0E948A0808952091260130915A
:1011C0002701822393230E948A08089520912601F3
:1011D00030912701822793270E948A080895089555
:1011E0009B01677091E001C0990F6A95EAF763E08F
:1011F000369527956A95E1F7220F331F220F331F8B
:10120000FA01E20FF31F40E050E0682F70E0819197
:10121000DF0111979B01042E02C0369527950A9491
:10122000E2F7217021952827292328272C934F5F47
:101230005F4F4430510559F708959C01982F9770DE
:1012400083E0369527958A95E1F7220F331F220F09
:10125000331FFB01E20FF31F40E050E080E02191DB
:1012600030E0092E02C0369527950A94E2F72170E6
:101270003327042E01C0220F0A94EAF7822B4F5F16
:101280005F4F4430510559F70895282F862F983025
:1012900060F4203150F430E1939FB0011124620FCB
:1012A000711D46EE50E00E94F0080895282F9830F6
:1012B00068F4803158F430E1939FC001112466EE48
:1012C00070E0820F911D0E941D09089580E008952D
:1012D000A0E0B0E0EEE6F9E00C94F9198C01E090A2
:1012E0002601F09027018091280190912901E82A98
:1012F000F92ACFE0D0E0CC24C394D12CC6010C2E27
:1013000002C0880F991F0A94E2F78E219F21892B32
:1013100049F4219798F7B12C8B2DCDB7DEB7E9E0D2
:101320000C94151ABC2EB8018C2F0E9481100197C5
:1013300081F3F2CFCF93DF93D82FC92F0E94680992
:101340006D2F7C2F0E948110DF91CF9108951F9304
:10135000CF93DF93162FD72F9091E500992341F07B
:10136000862F972F0E949A09DF91CF911F910895A0
:10137000882381F0862F972F0E946809C82F682F35
:10138000812F9D2F0E944509612F7D2F8C2F0E9458
:101390008110EACF862F972F0E945609C82FF4CFCD
:1013A0000F931F93CF93E0912A01C7E080912B0107
:1013B0008E1304C0CF911F910F9108950E2F10E04E
:1013C000CE9FF0011124E45DFE4F208131814281E6
:1013D00053816481758186810E945008F80131969D
:1013E000E770E4CF2091640130916501409166017E
:1013F00050916701609168017091690180916A0163
:101400000E945008089580916A01803178F480919B
:101410006901882359F0E0912A0120912B01309134
:1014200065014091640157E02E1301C008956E2FAD
:1014300070E05E9FF0011124DF01A45DBE4F1496A1
:101440008C911497882361F111968C9111978313D5
:1014500027C08C91841324C015968C911597811107
:101460001FC012968D919C91A0916601B091670169
:101470008A1B9B0B883C910598F480916A018F70C0
:10148000806180936A01EE5CFE4F80818F70806185
:10149000808384E691E00E94E2070E94D0090895CB
:1014A000FB013196E770C0CFE0912A0190912B01AA
:1014B00027E0E91302C080E00895AE2FB0E02E9F30
:1014C000F0011124E45DFE4F3181361306C03081F6
:1014D000381303C03581341304C0FD013196E77021
:1014E000E8CF81E008958F929F92AF92BF92DF92F2
:1014F000EF92FF920F931F93CF93DF93CDB7DEB799
:101500002D970FB6F894DEBF0FBECDBF8C0186E0DD
:10151000F801DE01189601900D928A95E1F7F80125
:10152000E080F580A280B380848194E6892E91E0EA
:10153000992E9091680191111BC0882309F4FCC079
:10154000FF2009F43DC1C8010E943908882309F42D
:1015500037C187E0F801D40101900D928A95E1F737
:10156000C4010E94AD040E94030A0E94F209E4C073
:10157000D09069012091660130916701A501421B5D
:10158000530BDD2009F4DBC0483C510508F0A6C030
:10159000882309F4D1C090916501918080916A01FE
:1015A000803108F06BC0991228C0909164019E119F
:1015B00024C0F1105DC08F70806180936A010E9429
:1015C000F20984E691E00E94E20780916A01F80145
:1015D0008683F12C8F2D2D960FB6F894DEBF0FBEAB
:1015E000CDBFDF91CF911F910F91FF90EF90DF90D2
:1015F000BF90AF909F908F900895F11039C040E058
:10160000692D8E2D0E94540A40E0692D8E2D0E9476
:10161000540AF82E8111DDCF888599850E949A0998
:10162000292F22952F70903450F49F70223080F033
:10163000992399F0F8019681903178F4CBCF2A5F05
:101640002F70223078F0C8010E94E207FD2CC2CF33
:10165000992319F0882309F4BDCF805E883008F4FF
:10166000B9CFF1CF803F08F4B5CF815F8230F7CF9B
:1016700080916A01816080936A01ABCF991207C0A3
:10168000909164019E1103C0FF2009F479C0C80144
:101690000E943908882309F493C0FF2009F490C000
:1016A00080916A01803288F0209164013091650157
:1016B0003A832983BC82AB82909168019D831E820C
:1016C0008F83CE0101960E94E20787E0F801A4E62D
:1016D000B1E001900D928A95E1F745CF90916A01B2
:1016E0009031A0F4488559856A857B858C859D85D8
:1016F0000E94460884E691E00E94E20787E0F40138
:1017000011928A95E9F70E94F20963CF8823A1F02C
:101710002091650181812813BACF809164018E11D7
:10172000B6CFF110B4CF9683C8010E94E20787E0DC
:10173000F40111928A95E9F7FF24F3944BCF483CCA
:10174000510508F041C08823B9F3FF20C9F19091F9
:101750006501818198132AC0809164018E1126C091
:1017600080916A0180FD19C08031B8F08683807F46
:10177000803F39F08681982F907F905F8F70892B02
:101780008683C8010E94E20787E0F801A4E6B1E081
:1017900001900D928A95E1F7E8CE87E0F801A4E682
:1017A000B1E001900D928A95E1F7C6CFC8010E9481
:1017B000390881118ACF80916A01816080936A0122
:1017C000C8010E94E207B8CF488559856A857B85A4
:1017D0008C859D850E94460891CFAEE0B0E0E3EF96
:1017E000FBE00C94FF19288739874A875B876C8751
:1017F0007D878E87CE0108960E94730A8823B1F0F8
:101800006C85662341F0288539854A855B857D8511
:101810008E850E94500817E080912A0190912B013B
:1018200089133EC02E96E3E00C941B1A87E0FE015C
:101830003896DE01119601900D928A95E1F720917C
:101840002B0140912A018C85882329F330E0C901BE
:1018500001968770992750E08417950799F097E0D3
:10186000929FD001939FB00D1124A45DBE4FFE0145
:10187000319601900D929A95E1F780932B010E9489
:10188000D009C9CF0E94170810922B0110922A018B
:1018900087E0E4E6F1E0DF011D928A95E9F7BBCF2E
:1018A000189FC0011124845D9E4F0E94730A8823F3
:1018B00009F4B8CFE0912A011E9FF0011124E45DE4
:1018C000FE4F2081318142815381648175818681FF
:1018D0000E94500880912A0190E001968770992714
:1018E00080932A0199CF80916B0186958695869584
:1018F000089580916B018770089590916B019770A6
:1019000081E0911101C080E00895809177010895F0
:1019100090917701982B909377010895982F909547
:101920008091770189238093770108951092770140
:10193000089590917601982B909376010895982FB1
:101940009095809176018923809376010895109275
:101950007601089508950E94AA0C089590916C0153
:10196000292F2823222331F08095892380936C012D
:101970000E94AB0C089508950E94BB0C08959091AD
:101980006D01292F2823281729F0982B90936D019A
:101990000E94BC0C089590916D01292F28232223C9
:1019A00031F08095892380936D010E94BC0C0895CD
:1019B00080916D01882329F010926D0180E00E94D2
:1019C000BC0C08950F931F93CF93DF930091600099
:1019D00010916100C091770180917601C82BD09160
:1019E0006D01DD2331F00E94E61581110E94D80CB3
:1019F000CD2BF801C08380916000909161000E941E
:101A00008F15DF91CF911F910F9108950E94E20CE5
:101A1000089508950E94090D08959091B20192FFD2
:101A200011C098E0899F90011124622B60936B0193
:101A30000E94A20880916B018695869586950E94EA
:101A40000A0D08950E94A208089510926B0180E08B
:101A50000E940A0D089590916B01809589238093CF
:101A60006B01282F277021110DC0891759F0909113
:101A7000B20192FF07C08695869586950E94B208AE
:101A80000E94250D08959091B20192FB222720F922
:101A9000281769F080FB92F99093B2018091B1010F
:101AA0009091B2010E948B0D82E00E942B0D08954F
:101AB0008091B20182FB882780F991E089270E94FA
:101AC000430D089581E00E94430D089580E00E9437
:101AD000430D08956FEF7FEF80E090E00E94781A49
:101AE000089580E090E00E94451A9C0181E0253E27
:101AF0003E4F09F080E0089582E090E00E943D1A98
:101B0000089583E090E00E943D1A089584E090E0FB
:101B10000E94451A0895BC0184E090E00E94781A62
:101B20000895AB01BC018FE090E00E946C1A08950B
:101B3000AB01BC0183E190E00E946C1A089560E063
:101B400070E0CB010E94980D089560E070E0CB0139
:101B50000E94910D0E949F0D0895A8E0B0E0E3EB74
:101B6000FDE00C94001A65EE7EEF80E090E00E94AC
:101B7000781A60E082E090E00E945B1A81E090E0D9
:101B8000909329018093280161E083E090E00E9416
:101B90005B1A60E074E184E090E00E94781A60E0F3
:101BA00086E090E00E945B1A60E087E090E00E948F
:101BB0005B1A40E050E0BA0188E090E00E946C1AA5
:101BC00060E083E290E00E945B1A60E08CE090E0CD
:101BD0000E945B1A60E08DE090E00E945B1A19821F
:101BE0001A821B821C821D821E821F82188648E078
:101BF00050E067E170E0CE0101960E944B1A40E090
:101C000050E0BA018FE190E00E946C1A0E94A50D8D
:101C10002896E2E00C941C1A0E94AD0D0895682FDE
:101C20008EE090E00E945B1A0895A6E0B0E0EBE140
:101C3000FEE00C94FE190E948A168C0180917801B6
:101C4000909179018017910779F019821A820E9488
:101C50008A16BC0149815A8180E090E00E947D048F
:101C600010937901009378012696E4E00C941A1AF7
:101C7000AF92BF92CF92DF92FF920F931F93CF93B9
:101C8000DF93F82E6B01C0E0D0E000E010E0AA2462
:101C9000A394B12C4C2F6F2D80E00E946303892BFD
:101CA00071F0C5010C2E02C0880F991F0A94E2F74B
:101CB0009C012C213D21232B11F0082B192B21965F
:101CC000C031D10539F7C801DF91CF911F910F9134
:101CD000FF90DF90CF90BF90AF9008950E9496162E
:101CE00060938E0170938F01809390019093910186
:101CF00060938A0170938B0180938C0190938D0186
:101D0000089508950895089589E791E10E940D12BC
:101D10000E94820E0E94F202089581E008950E94BE
:101D20008D0E08950E948D0E0895089508950E94C5
:101D3000950E0E94960E08950E94710D811102C0A9
:101D40000E940C0E0E947C0D809392010E94860DD1
:101D50009093B2018093B1010E94810D90E00E94A6
:101D6000660880912601909127010E9487080895B6
:101D70000E9483160E948D110E949C0E0E945104A5
:101D80000E9439030895A6E0B0E0E9ECFEE00C946F
:101D9000F4190E948F0E811108C00E94150E0E9436
:101DA00064042696EEE00C94101A0E94A3112AE710
:101DB000A22E21E0B22E650110E0F601E190F19033
:101DC0006F01812F0E9480111F5F183009F452C0EB
:101DD000E816F90691F38091920181FD0E94891124
:101DE0000E94920E782E10E066246394812F0E9448
:101DF00080117C01F501819091905F018815990512
:101E000009F453C0BC01812F0E94380E6C01019768
:101E10008C219D2100E0892B91F58E249F2400E0E8
:101E2000CC24C394D12CC4018C219D21892BC1F0D9
:101E30007720B1F009831A830E948A169C838B83D2
:101E40006D8221E0C7018C219D21892B09F420E0BE
:101E500049815A816B817C818D81922F0E947D0402
:101E60000F5FCC0CDD1C0031F1F6F5013297F182E9
:101E7000E0821BC0E816F90609F0ADCF8ECF101333
:101E800004C00F5F0830D9F7C8CF802F0E9480119F
:101E9000BC01802F0E94380E8C219D219C01215075
:101EA000310982239323892B61F31F5F183009F0D6
:101EB0009DCF0E946E0E73CF1F93CF93DF930E942E
:101EC0008610EC01811522E5920708F053C08115B8
:101ED00040E5940708F0DDC0803E9105F8F48D3CA4
:101EE000910508F0AEC0883A910580F4853A9105D5
:101EF00008F099C08130910521F00497813A91054D
:101F000050F4CE01DF91CF911F910895885A910925
:101F10004B9708F48BC0C0E0D0E0F3CF811550E4BC
:101F20009507F8F4C11580E2D80708F0CBC0C83E89
:101F3000D10538F3CE019A9581159F4160F78D2F19
:101F40000E942A11182FCE0199270E948610212F56
:101F500030E0322F2227E901CC27DF71C82BD92BA3
:101F6000D0CF99270E948610CC27DF70C82BD92BA1
:101F7000D06AC7CF803842E59407C8F5803652E56D
:101F8000950708F067C0C03482E5D807B0F08C2F01
:101F900086958695877020E2829FC0011124C370C8
:101FA00021E030E0A90102C0440F551FCA95E2F7B5
:101FB000EA01C82BD92BDC68A4CFC03252E5D50783
:101FC00008F041C08C2F8695869520E2829FC00143
:101FD0001124C37021E030E0A90102C0440F551F55
:101FE000CA95E2F7EA01C82BD92BDD688ACF803C7D
:101FF00052E5950760F48F71C03AD24508F03FC0B2
:1020000090E0982F8827EC01C46FD06A7ACF805C6B
:102010009245809708F07FCFDC2FCC27CC27DF714B
:10202000C06FD06A6ECFA497D0646BCFC85AD0E08F
:10203000CC0FDD1FCB55DF4F0990D881C02DD46464
:1020400060CFD0655ECFCF71D0E0DC2FCC27C16FE1
:10205000D06A57CF86958695877020E2829FC0010F
:102060001124C37021E030E0A90102C0440F551FC4
:10207000CA95E2F7EA01C82BD92BDA6842CF0E9451
:102080002A11C82FD0E0DC2FCC27CC27DF71D062FB
:1020900038CF8F710E942A1165E0D695C7956A9551
:1020A000E1F7CF70D0E0DC2FCC27282F30E084FF81
:1020B00005C054E0220F331F5A95E1F7C22BD32BF2
:1020C000D0691FCF8D2F8F710E942A11182FCE013A
:1020D00099270E948610212F30E0322F22272227B5
:1020E0003F71282B392BE901D2CF462F672F78304B
:1020F00028F4403118F40E946303089580E090E0D2
:1021000008950E9475100E945C0F0895803E91050D
:10211000D1F1C8F48133910509F47FC048F48932C4
:10212000910509F46FC08A32910509F47DC00895C4
:1021300089339105E1F082389105C9F08533910525
:1021400009F45BC00895843E9105D1F148F4823EC4
:10215000910531F1833E910541F181EE90E00895C2
:10216000863E9105C1F1873E9105E1F108952091E8
:10217000B1012370211165C02091B20123FF14C069
:1021800089E290E008952091B10120FD43C0309193
:10219000B20130FF09C024FF4EC080E090E00895F6
:1021A0002091B10122FDF7CF08952091B10122FDC8
:1021B00045C03091B20130FD44C024FFF5CFEDCFD2
:1021C0002091B20121FFF0CF8091B10184FDE5CFD4
:1021D00087EE90E008952091B10123FFE5CF24FD23
:1021E000DCCFF6CF2091B10123FD2EC03091B2019A
:1021F00031FFE3CF84EE90E008952091B10125FFF7
:10220000D3CFBECF2091B10125FD21C02091B201D5
:1022100023FFCACF89E390E008952091B10126FF02
:10222000C3CF8AE290E008952091B10126FFBCCF90
:1022300081E390E0089583EE90E0089582EE90E0CF
:10224000089580EE90E0089586EE90E0089585E38D
:1022500090E0AACF9091B10192FF10C041E0282FE9
:102260002471243009F040E031E0282F2871283013
:1022700009F030E0431711F02CE0822793FF10C0E3
:1022800041E0282F2471243109F040E031E0282F6B
:102290002871283109F030E0431711F02CE0822733
:1022A0003091B20130FF10C051E0282F2171213050
:1022B00009F050E041E0282F2871283009F040E073
:1022C000541711F029E0822731FF10C041E0282F78
:1022D0002171213109F040E031E0282F28712831A7
:1022E00009F030E0431711F029E0822794FD877E42
:1022F000089580E0089508950E947B11089508953F
:10230000E82FF0E0EE0FFF1FED53FE4F808191812B
:1023100008950895089581E008950E948A1180E14A
:10232000E3EBF1E0DF01982F1D929A95E9F7E3ECDA
:10233000F1E0DF011D928A95E9F788E00E94B6116D
:102340000E947C110895CF9383EB91E00E948B1142
:10235000282F48E063EC71E083EB91E00E94B71115
:10236000C82F0E9411038C2FCF9108950895A0E0EB
:10237000B0E0EDEBF1E10C94FA19D82EE92EF62E2F
:10238000D72F042FC22F222379F081E0809395016B
:102390000E948A16909394018093930180E0CDB7B8
:1023A000DEB7E8E00C94161AC0909501CC20B1F38A
:1023B00080919301909194010E94B316059770F358
:1023C00010E0000F111FA8016D2D7E2D8F2D9D2F68
:1023D0000E94271A892B41F0A8016D2D7E2D8F2D8B
:1023E0009D2F0E94341ACC2D109295018C2FD7CF9F
:1023F0000E9471160E941E170E94840E0E942517CB
:102400000E94B80E0E9436170E9444170E946F1750
:102410000E947B170E94970EF7CF9093DD00809368
:10242000DC0008958B3258F4853090F0EBEFE80F24
:10243000E63270F4F0E0E356F54E0C94EA1983347A
:1024400048F48A3308F051C0853331F0883369F09D
:1024500080E008958334E1F781E090E00E9466080F
:102460000E94170802C00E940C0E81E0089580911E
:102470009201807F8093920181E080939601F5CF55
:102480000E94E303F2CF90919201892F8E7F90FFFB
:1024900081608093920180FDE8CF817F80939201DB
:1024A000E4CF90919201892F8D7F91FF826080937C
:1024B000920181FFDACF809192018160EFCF9091FC
:1024C0009201892F8B7F92FF84608093920182FD1D
:1024D000F2CFCBCF90919201892F877F93FF8860B5
:1024E0008093920183FDE7CFC0CF895321E030E094
:1024F000A90102C0440F551F8A95E2F7CA01AECF69
:102500008D51F4CF80E008950E9482120895CF93F8
:10251000C82F80919601882331F0813099F0109274
:10252000960180E00DC00E94850C8232D1F78C2F7D
:102530000E948212811118C08C2F0E941212817089
:10254000CF9108950E94850C823289F38C2F0E94CE
:10255000841281110EC0C93271F048F4CB3049F0B9
:10256000C43149F080E0EBCF81E090E0E8CFC833A0
:10257000C9F781E0E4CF10929601F4CFCF93DF93B7
:10258000EB0186319C4719F50E94850C9D819923AA
:10259000A1F08A7A91E0811101C090E090939701B7
:1025A000882349F085E30E9437160E94060D80E0DB
:1025B000DF91CF91089589E2F6CF8091970188232A
:1025C00021F085E30E943F16F0CF89E2FBCF81E046
:1025D000EFCFCF93DF93EC01FB018581882309F4D2
:1025E000D2C09E0130572332310508F0B2C00E949C
:1025F000860D9093B2018093B101FE01E150F04746
:10260000E232F10520F4ED53F54E0C94EA19809175
:10261000B10181608093B10193C08091B201886063
:102620008093B2018DC08091B1018260F3CF80911F
:10263000B1018460EFCF8091B1018860EBCF8091D0
:10264000B2018160EDCF8091B2018260E9CF8091CB
:10265000B1018061DFCF8091B1018062DBCF8091D9
:10266000B1018064D7CF0E9417088091B1018068C2
:10267000D1CF8091B1018C60CDCF8091B2018360C8
:10268000CFCF8091B1018E7FC5CF8091B201877F7E
:10269000C7CF8091B1018D7FBDCF8091B1018B7F7C
:1026A000B9CF8091B101877FB5CF8091B2018E7F84
:1026B000B7CF8091B2018D7FB3CF8091B1018F7E72
:1026C000A9CF8091B1018F7DA5CF8091B1018F7B82
:1026D000A1CF0E9417088091B1018F779BCF809185
:1026E000B101837F97CF8091B2018C7F99CF809188
:1026F000B10182FB992790F921E0922790FB82F9A2
:1027000090FB83F987CF8091B201982F90959170BB
:102710008E7F892B90FB81F983CF9091B101892F16
:102720008F7B96FF806476CF0E9417089091B1014D
:10273000892F97FB87F980586DCF81E00E940F0E9B
:102740008091B1019091B2010E948B0D0E941708F7
:1027500080E0DF91CF91089580E0F0CF9091B101BA
:10276000892F8F7E94FF806155CF9091B101892F81
:102770008E7F90FF81604ECF9091B201892F877F2D
:1027800093FF88604DCF81E0E4CFA0E0B0E0EBECB8
:10279000F3E10C94F919E82FF0E0E25AFE4FB490FF
:1027A000282F26952695269530E0F901E250FE4F18
:1027B0000491877010E0082E02C0159507950A94C1
:1027C000E2F701701127F901E251FE4FE490F12C7C
:1027D000082E02C0F594E7940A94E2F791E0E9220A
:1027E000FF24F901E252FE4FC491D0E002C0D5951A
:1027F000C7958A95E2F7C170DD27C62ED12C011549
:10280000110549F5E114F10431F086EE0E94B60499
:10281000C601009771F5B6018B2D0E949005C60187
:10282000009779F5E114F104A1F50115110531F0D6
:1028300081EE0E943F05C6010097C9F5CD2B31F00E
:102840008CE20E94A805C114D104C9F5CDB7DEB74A
:10285000E9E00C94151A81EE0E94B604C6010097B7
:1028600089F2EFE9FFE03197F1F700C0000001972E
:10287000F6CFEFE9FFE03197F1F700C000000197D4
:10288000C8CFEFE9FFE03197F1F700C000000197F2
:10289000C7CF86EE0E943F05C601009731F2EFE9EF
:1028A000FFE03197F1F700C000000197F6CFEFE9A4
:1028B000FFE03197F1F700C000000197BDCF8FE92D
:1028C0009FE00197F1F700C0000091E0C91AD1081C
:1028D000BACFFF920F931F93CF93DF938C01F62E05
:1028E000F8018491882309F450C0813009F048C070
:1028F000E8012196FE018491813049F42196FE0180
:1029000084910E94A8058E010F5F1F4FE9CF82308E
:1029100039F4E8012296FE0184910E94B604F3CFB7
:10292000833039F4E8012296FE0184910E943F052C
:10293000EACF843041F7E8012296FE01849120E03D
:1029400030E04AE0FE0131968053990B8A309105C0
:1029500060F021153105B9F28FE99FE00197F1F799
:1029600000C0000021503109F4CF429FB001439FC5
:10297000700D11249C01260F371F8491EF01E2CFC7
:102980006F2D0E94C513E801BECFCDB7DEB7E5E0DD
:102990000C94191A0F931F93CF93DF93C42FD22F48
:1029A000FC0185818823C9F040939A010E948A1610
:1029B000909399018093980180E28C0F883040F4C5
:1029C000C77081E001C0880FCA95EAF70E94B1057F
:1029D000DF91CF911F910F91089510919A011413D7
:1029E0003CC080919801909199010E94B316883C57
:1029F000910598F5C0E2CD0F1D1741F180E2810FDE
:102A0000883040F4177081E001C0880F1A95EAF70A
:102A10000E94B805C83020F0802F0E94A805D8CFAA
:102A200091E08D2F877001C0990F8A95EAF7892F61
:102A30000E94B105802F0E94A805D77081E001C0D7
:102A4000880FDA95EAF70E94B805C2CF802F0E945E
:102A5000A805C83008F0BCCFF0CF80E28C0F8830DA
:102A600008F0B6CFC77081E001C0880FCA95EAF7B9
:102A7000EACF0F93FC01CB01E851FC47E730F105A9
:102A800090F5EB51F54E0C94EA1906E221EE41EE79
:102A90006AE17CE70E94CA1480E00F91089507E282
:102AA00025EE45EE6BE17CE7F5CF06E221EE40EE48
:102AB00068E17CE7EFCF07E225EE44EE69E17CE7D1
:102AC000E9CF06E221EE42EE6CE17CE7E3CF07E2DC
:102AD00025EE46EE6DE17CE7DDCF08E221E045EE34
:102AE0006EE17CE7D7CFFB018581811110929A01BD
:102AF00081E0D3CF9093A00180939F010895E0914E
:102B00009F01F091A001309729F00190F081E02D14
:102B10000995089580E008950E947F150895E09139
:102B20009F01F091A001309721F00280F381E02D08
:102B300009950895A3E0B0E0E0EAF5E10C94001AED
:102B40009C0180919D0190919E0182179307A1F0B5
:102B500030939E0120939D01E0919F01F091A0018F
:102B6000309751F083E089833B832A830084F18589
:102B7000E02DCE01019609952396E2E00C941C1AF3
:102B8000A3E0B0E0E6ECF5E10C94001A9C01809122
:102B90009B0190919C0182179307A1F030939C01B7
:102BA00020939B01E0919F01F091A001309751F09B
:102BB00084E089833B832A830084F185E02DCE0164
:102BC000019609952396E2E00C941C1A409160004E
:102BD000509161009A012E5F3F4F485F5F4F80E048
:102BE000F90190812F5F3F4F91118F5F421753077B
:102BF000B9F70895882371F0209160003091610049
:102C0000F9013296285F3F4F9191981729F0E2170A
:102C1000F307D1F780E0089581E008959C01FC015D
:102C200032968FEF90E04191461751F08F3F19F4A3
:102C3000411101C0892F9F5F9630A9F78F3F09F49A
:102C40000895280F311D87FD3A95F9016283089593
:102C50009C01FC013296285F3F4F8191861303C08F
:102C6000DF0111971C92E217F307B9F70895682F57
:102C700080916000909161000E940E160895682F67
:102C800080916000909161000E9428160895E09163
:102C90006000F0916100329686E0DF011D928A9516
:102CA000E9F70895089508950E9453160895089528
:102CB00008950E9452160895CF930E9457160E94BD
:102CC000A3110E945816C0E08C2F0E948011892BFE
:102CD00031F4CF5FC830C1F780E0CF91089581E033
:102CE000FCCF84B7806884BF84B7806884BF0895B0
:102CF0008091A30181110E94440408950E94170845
:102D00000E94490408958BE083BF8AEF8CBF82E064
:102D100089BF08952FB7F8948091D3019091D40181
:102D2000A091D501B091D6012FBF0895A4E0B0E0E5
:102D3000ECE9F6E10C94001A8FB7F8942091D301D6
:102D40003091D4014091D5015091D60129833A8325
:102D50004B835C838FBF69817A818B819C812496B0
:102D6000E2E00C941C1A9C014FB7F8948091D301B7
:102D70009091D401A091D501B091D6014FBF821B93
:102D8000930B089578941F921FB61F9211248F936E
:102D90009F93AF93BF938091D3019091D401A09161
:102DA000D501B091D6010196A11DB11D8093D3012B
:102DB0009093D401A093D501B093D601BF91AF9168
:102DC0009F918F911F901FBE1F90189560E081E02A
:102DD00090E00E947E1A88E19CE00FB6F894A895D6
:102DE00081BD0FBE91BDFFCF88E19CE00FB6F89486
:102DF000A89581BD0FBE91BDFFCF8091FE018823B4
:102E000069F01092FE010E948A169093A2018093AD
:102E1000A1011092A3018091A30108958091A301C3
:102E20008111F9CF8091A1019091A2010E94B31666
:102E3000069788F381E08093A301EDCF0E948A1664
:102E40009093A2018093A10108950E94CF198B9ABB
:102E50008FEFA895EFE9FFE03197F1F700C0000090
:102E600081508111F6CF8B98789408950E94D917DC
:102E70000E947A152FEF80E792E021508040904029
:102E8000E1F700C0000008950E94FD16811120C0E6
:102E900008950E9478160E945C168823C9F0F89461
:102EA00091B3939A892F8C6081BB82B32CE08227E7
:102EB00082BB3FE748E381E0315040408040E1F78A
:102EC00000C0000082B3822782BB91BB93987894A4
:102ED0000E94FD168111DDCF0E947E1608950E948A
:102EE000D21880910402882329F08091E20184FDA8
:102EF0000E94C30E089508958091B0010895089529
:102F000008951F93CF93DF93EC0180916C0015E03F
:102F1000811120C08091E20184FF05C068E0CE01EC
:102F20000E94C8180BC00E94D2188FE19EE401973E
:102F3000F1F700C0000011501111ECCF88E0FE0144
:102F4000A7EAB1E001900D928A95E1F7DF91CF9168
:102F50001F9108958091E20184FDE0CF0E94D21874
:102F60008FE19EE40197F1F700C0000011501111AC
:102F7000F1CFE4CF1F93CF93DF93D82F192FC5E064
:102F800080911B0284FF09C063E08D2F912F0E9466
:102F9000CD18DF91CF911F9108950E94D2188FE133
:102FA0009EE40197F1F700C00000C150C111E8CFC5
:102FB000F0CF82E690E00895FC0180818076803237
:102FC00051F48181893061F140F48230F1F0833035
:102FD00021F1813071F080E008958A30A9F18B30C1
:102FE000D1F784819581892BB1F7828180936C0020
:102FF000F2CF84819581892B71F787EA91E09093D4
:1030000000028093FF0188E008958FEA91E0909399
:1030100000028093FF0181E008958CE690E0F7CFF5
:10302000828193818115924069F484819581892BF5
:1030300049F481E08093A601868197819093A50150
:103040008093A4018FEF089583818093AF01C3CF54
:10305000FC018091A4019091A501892B61F08091E0
:10306000A601813041F490819093B0011092A501A6
:103070001092A40108958FEF08950895FC018381B3
:10308000833051F130F48130B9F08230E9F080E0E2
:1030900008958132D9F18232D1F7848195810097E8
:1030A00009F446C0019799F78BE792E090930002EC
:1030B0008093FF0182E3089589E492E090930002F7
:1030C0008093FF0182E108958EE092E090930002E8
:1030D0008093FF018BE308958281813061F082301B
:1030E00091F08111D4CF87E792E090930002809312
:1030F000FF0184E0089589E692E0909300028093B6
:10310000FF018CE008958BE592E0F7CF84819581F3
:10311000009731F0019709F0BACF89E392E002C03D
:1031200080E292E0909300028093FF0189E008958D
:103130008DEA92E0909300028093FF0184E4089569
:103140001F93CF93DF93782F162FEA01888184FF96
:103150001CC0898128E882278983FE013296272FA7
:10316000392FCF01710FD9012F5F3F4F4C91419300
:10317000472F421B1416BCF3612F0E94AD011C5F48
:103180001883DF91CF911F9108958AE58883E5CF59
:1031900042EE51E00E94A01808954BE152E00E94D7
:1031A000A0180895CF93DF9360910102635067FDEB
:1031B00012C08091FD01CCE0D0E0C81BD109CB5FEB
:1031C000DD4F8091FC01803108F059C0CE010E9492
:1031D0003D181092010280916E0084FF41C08091E1
:1031E0006D008F3F09F43CC0C82F893008F0C8E05B
:1031F000982F9C1B90936D009091D70128E89227FF
:103200009093D7018823F1F08091FF019091000203
:103210002091FB0126FFB6C0FC012C2F48ED51E0A8
:103220003491DA013C934F5F5F4F31962150211169
:10323000F7CF01962FEF2C0F820F911D9093000274
:103240008093FF016C2F88ED91E00E94AD0184E036
:103250008C0FC83019F09FEF90936D0080936E0033
:1032600084E190B39C70911107C081508111F9CF16
:10327000109202021092FA01DF91CF9108958D32DF
:1032800009F06DC0683009F0A4CF83EC8093D701BA
:103290008AE580936E001092FB01888180768823F6
:1032A00071F0CE010E94DC178F3FB9F5988197FD30
:1032B0008E8190E89093FB0180936D008ACF2A81E4
:1032C0001092E001998191110AC01092E10120EE63
:1032D00031E082E0309300022093FF011EC0953060
:1032E00029F42093020220EE31E0F4CF9630E9F485
:1032F0009B81913039F4CE010E943E1890E4909366
:10330000FB01D2CF9230B9F39330A9F3913299F304
:10331000923289F390E49093FB019F819111CCCF7D
:103320009E81981748F6892FC7CF983089F0993039
:1033300019F420930402D7CF9A3071F09B3099F69C
:103340009BE49093E30190931C029093EF01CBCF09
:1033500024E032E081E0BECF20EE31E0FBCF80916F
:10336000FB0187FF36CFCE010E9428188F3F21F442
:103370008EE180936E002DCF882309F42ACF10921E
:103380006D0027CFDC012C2F48ED51E0FA013D9173
:1033900030834F5F5F4F21502111F8CF4ACFCF9339
:1033A000DF9385B7886085BF8BB780688BBFC2EE1F
:1033B000D1E08BE48983ABE1B2E011968C93119755
:1033C000EEEEF1E081838AE588838C938083DF9140
:1033D000CF910895EE0FFF1F0590F491E02D099411
:1033E0002F923F924F925F926F927F928F929F9215
:1033F000AF92BF92CF92DF92EF92FF920F931F9303
:10340000CF93DF93CDB7DEB7CA1BDB0B0FB6F894B3
:10341000DEBF0FBECDBF09942A88398848885F84F3
:103420006E847D848C849B84AA84B984C884DF8064
:10343000EE80FD800C811B81AA81B981CE0FD11D48
:103440000FB6F894DEBF0FBECDBFED010895FB01AE
:10345000DC0104C08D910190801921F4415050404D
:10346000C8F7881B990B0895FB01DC0102C001908D
:103470000D9241505040D8F70895E199FECF9FBB7F
:103480008EBBE09A99278DB30895A8E1B0E042E0A1
:1034900050E00C948D1ADC01A40FB51F4150504030
:1034A00048F0CB01840F951F2E910E945C1A415069
:1034B0005040D0F70895262FE199FECF9FBB8EBBD9
:1034C000E09A01970DB2021631F02DBB0FB6F894B9
:1034D000E29AE19A0FBE08950396272F0E945C1A84
:1034E0000E945B1A252F0E945C1A242F0C945C1AF0
:1034F0000196272F0E945C1A0C945B1A262FE199E3
:10350000FECF9FBB8EBB2DBB0FB6F894E29AE19A1B
:103510000FBE01960895DC01CB01FC01E199FECFBD
:1035200006C0FFBBEEBBE09A31960DB20D92415042
:103530005040B8F70895F894FFCF40123712431265
:103540003512281228123512281228125F1228125A
:103550006A1228122812281228122812351228124C
:1035600028123512281251122812281280128012A5
:1035700080128012801280128012801280122C120F
:103580002812401233124113B513491313131713A2
:103590004D131B1351135D132713AE132B1361131C
:1035A0002F1365138D1333136913941339136F138A
:1035B00077131F135513231359133D1373138313D9
:1035C0009D13AC130D134513BC1355155B15451511
:0835D0004F15611567156D151B
:1035D8006E017C17811780177F17BA1701FF5AE20F
:1035E80000E900EA00B500B600B700CD008301CCC1
:1035F800008A019201940121022302240225022655
:103608000227022A02B300B4006F0070009F01CBAA
:10361800019F02A002E200E900EA00B500B600B787
:1036280000CD008301CC008A01920194012102237C
:103638000224022502260227022A02B300B4006FE0
:0C3648000070009F01CB019F02A0020057
:00000001FF
